{
  "_format": "hh-sol-artifact-1",
  "contractName": "Metacircle",
  "sourceName": "contracts/Metacircle.sol",
  "abi": [
    {
      "inputs": [],
      "name": "commentCount",
      "outputs": [
        {
          "internalType": "uint256",
          "name": "",
          "type": "uint256"
        }
      ],
      "stateMutability": "view",
      "type": "function"
    },
    {
      "inputs": [
        {
          "internalType": "uint256",
          "name": "",
          "type": "uint256"
        }
      ],
      "name": "comments",
      "outputs": [
        {
          "internalType": "uint256",
          "name": "commentId",
          "type": "uint256"
        },
        {
          "internalType": "string",
          "name": "authorUsername",
          "type": "string"
        },
        {
          "internalType": "uint256",
          "name": "postId",
          "type": "uint256"
        },
        {
          "internalType": "string",
          "name": "content",
          "type": "string"
        }
      ],
      "stateMutability": "view",
      "type": "function"
    },
    {
      "inputs": [
        {
          "internalType": "string",
          "name": "_content",
          "type": "string"
        }
      ],
      "name": "createPost",
      "outputs": [],
      "stateMutability": "nonpayable",
      "type": "function"
    },
    {
      "inputs": [
        {
          "internalType": "string",
          "name": "_username",
          "type": "string"
        },
        {
          "internalType": "string",
          "name": "_bio",
          "type": "string"
        }
      ],
      "name": "createUser",
      "outputs": [],
      "stateMutability": "nonpayable",
      "type": "function"
    },
    {
      "inputs": [
        {
          "internalType": "address",
          "name": "_userAddress",
          "type": "address"
        }
      ],
      "name": "getUsername",
      "outputs": [
        {
          "internalType": "string",
          "name": "",
          "type": "string"
        }
      ],
      "stateMutability": "view",
      "type": "function"
    },
    {
      "inputs": [],
      "name": "postCount",
      "outputs": [
        {
          "internalType": "uint256",
          "name": "",
          "type": "uint256"
        }
      ],
      "stateMutability": "view",
      "type": "function"
    },
    {
      "inputs": [
        {
          "internalType": "uint256",
          "name": "",
          "type": "uint256"
        }
      ],
      "name": "posts",
      "outputs": [
        {
          "internalType": "uint256",
          "name": "postId",
          "type": "uint256"
        },
        {
          "internalType": "address",
          "name": "author",
          "type": "address"
        },
        {
          "internalType": "string",
          "name": "content",
          "type": "string"
        },
        {
          "internalType": "uint256",
          "name": "likes",
          "type": "uint256"
        }
      ],
      "stateMutability": "view",
      "type": "function"
    },
    {
      "inputs": [
        {
          "internalType": "address",
          "name": "",
          "type": "address"
        }
      ],
      "name": "users",
      "outputs": [
        {
          "internalType": "address",
          "name": "userAddress",
          "type": "address"
        },
        {
          "internalType": "string",
          "name": "username",
          "type": "string"
        },
        {
          "internalType": "string",
          "name": "bio",
          "type": "string"
        }
      ],
      "stateMutability": "view",
      "type": "function"
    }
  ],
  "bytecode": "0x608060405234801561001057600080fd5b50610bc4806100206000396000f3fe608060405234801561001057600080fd5b50600436106100885760003560e01c80638ebb4c151161005b5780638ebb4c15146100ee578063a87430ba14610111578063c7303c6114610133578063ce43c0321461014657600080fd5b80630b1e7f831461008d57806317906c2e146100b957806345ff20de146100d057806387b162b5146100d9575b600080fd5b6100a061009b366004610783565b610166565b6040516100b094939291906107e2565b60405180910390f35b6100c260035481565b6040519081526020016100b0565b6100c260045481565b6100ec6100e73660046108be565b610222565b005b6101016100fc366004610783565b610314565b6040516100b09493929190610922565b61012461011f36600461095e565b61044d565b6040516100b09392919061098e565b6100ec6101413660046109cc565b61058a565b61015961015436600461095e565b61065d565b6040516100b09190610a09565b60016020819052600091825260409091208054918101546002820180546001600160a01b03909216929161019990610a1c565b80601f01602080910402602001604051908101604052809291908181526020018280546101c590610a1c565b80156102125780601f106101e757610100808354040283529160200191610212565b820191906000526020600020905b8154815290600101906020018083116101f557829003601f168201915b5050505050908060030154905084565b336000908152602081905260409020600101805461023f90610a1c565b1590506102935760405162461bcd60e51b815260206004820152601460248201527f5573657220616c7265616479206578697374732e00000000000000000000000060448201526064015b60405180910390fd5b604080516060810182523380825260208083018681528385018690526000928352908290529290208151815473ffffffffffffffffffffffffffffffffffffffff19166001600160a01b03909116178155915190919060018201906102f89082610aa7565b506040820151600282019061030d9082610aa7565b5050505050565b6002602052600090815260409020805460018201805491929161033690610a1c565b80601f016020809104026020016040519081016040528092919081815260200182805461036290610a1c565b80156103af5780601f10610384576101008083540402835291602001916103af565b820191906000526020600020905b81548152906001019060200180831161039257829003601f168201915b5050505050908060020154908060030180546103ca90610a1c565b80601f01602080910402602001604051908101604052809291908181526020018280546103f690610a1c565b80156104435780601f1061041857610100808354040283529160200191610443565b820191906000526020600020905b81548152906001019060200180831161042657829003601f168201915b5050505050905084565b600060208190529081526040902080546001820180546001600160a01b03909216929161047990610a1c565b80601f01602080910402602001604051908101604052809291908181526020018280546104a590610a1c565b80156104f25780601f106104c7576101008083540402835291602001916104f2565b820191906000526020600020905b8154815290600101906020018083116104d557829003601f168201915b50505050509080600201805461050790610a1c565b80601f016020809104026020016040519081016040528092919081815260200182805461053390610a1c565b80156105805780601f1061055557610100808354040283529160200191610580565b820191906000526020600020905b81548152906001019060200180831161056357829003601f168201915b5050505050905083565b33600090815260208190526040902060010180546105a790610a1c565b90506000036105f85760405162461bcd60e51b815260206004820152601460248201527f5573657220646f6573206e6f742065786973742e000000000000000000000000604482015260640161028a565b6003805490600061060883610b67565b909155505060035460008181526001602081905260409091209182558101805473ffffffffffffffffffffffffffffffffffffffff191633179055600281016106518382610aa7565b50600060039091015550565b6001600160a01b038116600090815260208190526040902060010180546060919061068790610a1c565b90506000036106d85760405162461bcd60e51b815260206004820152601460248201527f5573657220646f6573206e6f742065786973742e000000000000000000000000604482015260640161028a565b6001600160a01b038216600090815260208190526040902060010180546106fe90610a1c565b80601f016020809104026020016040519081016040528092919081815260200182805461072a90610a1c565b80156107775780601f1061074c57610100808354040283529160200191610777565b820191906000526020600020905b81548152906001019060200180831161075a57829003601f168201915b50505050509050919050565b60006020828403121561079557600080fd5b5035919050565b6000815180845260005b818110156107c2576020818501810151868301820152016107a6565b506000602082860101526020601f19601f83011685010191505092915050565b8481526001600160a01b038416602082015260806040820152600061080a608083018561079c565b905082606083015295945050505050565b634e487b7160e01b600052604160045260246000fd5b600082601f83011261084257600080fd5b813567ffffffffffffffff8082111561085d5761085d61081b565b604051601f8301601f19908116603f011681019082821181831017156108855761088561081b565b8160405283815286602085880101111561089e57600080fd5b836020870160208301376000602085830101528094505050505092915050565b600080604083850312156108d157600080fd5b823567ffffffffffffffff808211156108e957600080fd5b6108f586838701610831565b9350602085013591508082111561090b57600080fd5b5061091885828601610831565b9150509250929050565b84815260806020820152600061093b608083018661079c565b8460408401528281036060840152610953818561079c565b979650505050505050565b60006020828403121561097057600080fd5b81356001600160a01b038116811461098757600080fd5b9392505050565b6001600160a01b03841681526060602082015260006109b0606083018561079c565b82810360408401526109c2818561079c565b9695505050505050565b6000602082840312156109de57600080fd5b813567ffffffffffffffff8111156109f557600080fd5b610a0184828501610831565b949350505050565b602081526000610987602083018461079c565b600181811c90821680610a3057607f821691505b602082108103610a5057634e487b7160e01b600052602260045260246000fd5b50919050565b601f821115610aa2576000816000526020600020601f850160051c81016020861015610a7f5750805b601f850160051c820191505b81811015610a9e57828155600101610a8b565b5050505b505050565b815167ffffffffffffffff811115610ac157610ac161081b565b610ad581610acf8454610a1c565b84610a56565b602080601f831160018114610b0a5760008415610af25750858301515b600019600386901b1c1916600185901b178555610a9e565b600085815260208120601f198616915b82811015610b3957888601518255948401946001909101908401610b1a565b5085821015610b575787850151600019600388901b60f8161c191681555b5050505050600190811b01905550565b600060018201610b8757634e487b7160e01b600052601160045260246000fd5b506001019056fea2646970667358221220614af11815084a6c48b0c1a276bc1783ec7f33ed3d452b5d53af5066f354e4a064736f6c63430008180033",
  "linkReferences": {},
  "deployedLinkReferences": {}
}